{
  "contractName": "HelloEthSalon",
  "abi": [
    {
      "inputs": [],
      "payable": false,
      "stateMutability": "nonpayable",
      "type": "constructor"
    },
    {
      "constant": false,
      "inputs": [],
      "name": "GetMessage",
      "outputs": [
        {
          "name": "message",
          "type": "string"
        }
      ],
      "payable": false,
      "stateMutability": "nonpayable",
      "type": "function"
    }
  ],
  "bytecode": "0x608060405234801561001057600080fd5b5061013f806100206000396000f3fe608060405260043610610041576000357c0100000000000000000000000000000000000000000000000000000000900463ffffffff16806303e33b5314610046575b600080fd5b34801561005257600080fd5b5061005b6100d6565b6040518080602001828103825283818151815260200191508051906020019080838360005b8381101561009b578082015181840152602081019050610080565b50505050905090810190601f1680156100c85780820380516001836020036101000a031916815260200191505b509250505060405180910390f35b60606040805190810160405280600581526020017f48656c6c6f00000000000000000000000000000000000000000000000000000081525090509056fea165627a7a72305820ab8c6f2db7ec02d1e23df1f2960ed3cffb496e8042940682faf91ed775d84d5b0029",
  "source": "pragma solidity ^0.5.0;\n\n\ncontract HelloEthSalon {\n\n  constructor() public {\n\n\t}\n\n\tfunction GetMessage() public returns (string memory message) {\n    return \"Hello\";\n  }\n\n}\n",
  "sourcePath": "F:/Courses/Blockchain/Git/HelloWorld-SmartContract/HelloWorld/contracts/HelloEthSalon.sol",
  "compiler": {
    "name": "solc",
    "version": "0.5.0+commit.1d4f565a.Emscripten.clang"
  },
  "schemaVersion": "3.0.2",
  "updatedAt": "2019-03-08T20:53:19.798Z",
  "devdoc": {
    "methods": {}
  },
  "userdoc": {
    "methods": {}
  }
}